{
  "_format": "hh-sol-artifact-1",
  "contractName": "Guestbook",
  "sourceName": "contracts/guestbook.sol",
  "abi": [
    {
      "inputs": [],
      "name": "getMessages",
      "outputs": [
        {
          "components": [
            {
              "internalType": "address",
              "name": "sender",
              "type": "address"
            },
            {
              "internalType": "string",
              "name": "text",
              "type": "string"
            },
            {
              "internalType": "uint256",
              "name": "timestamp",
              "type": "uint256"
            }
          ],
          "internalType": "struct Guestbook.Message[]",
          "name": "",
          "type": "tuple[]"
        }
      ],
      "stateMutability": "view",
      "type": "function"
    },
    {
      "inputs": [
        {
          "internalType": "uint256",
          "name": "",
          "type": "uint256"
        }
      ],
      "name": "messages",
      "outputs": [
        {
          "internalType": "address",
          "name": "sender",
          "type": "address"
        },
        {
          "internalType": "string",
          "name": "text",
          "type": "string"
        },
        {
          "internalType": "uint256",
          "name": "timestamp",
          "type": "uint256"
        }
      ],
      "stateMutability": "view",
      "type": "function"
    },
    {
      "inputs": [
        {
          "internalType": "string",
          "name": "_text",
          "type": "string"
        }
      ],
      "name": "postMessage",
      "outputs": [],
      "stateMutability": "nonpayable",
      "type": "function"
    }
  ],
  "bytecode": "0x608060405234801561001057600080fd5b50610b70806100206000396000f3fe608060405234801561001057600080fd5b50600436106100415760003560e01c80630d80fefd146100465780635ff6cbf3146100785780636630f88f14610096575b600080fd5b610060600480360381019061005b91906103f7565b6100b2565b60405161006f93929190610504565b60405180910390f35b610080610194565b60405161008d91906106bc565b60405180910390f35b6100b060048036038101906100ab9190610813565b6102e5565b005b600081815481106100c257600080fd5b90600052602060002090600302016000915090508060000160009054906101000a900473ffffffffffffffffffffffffffffffffffffffff169080600101805461010b9061088b565b80601f01602080910402602001604051908101604052809291908181526020018280546101379061088b565b80156101845780601f1061015957610100808354040283529160200191610184565b820191906000526020600020905b81548152906001019060200180831161016757829003601f168201915b5050505050908060020154905083565b60606000805480602002602001604051908101604052809291908181526020016000905b828210156102dc57838290600052602060002090600302016040518060600160405290816000820160009054906101000a900473ffffffffffffffffffffffffffffffffffffffff1673ffffffffffffffffffffffffffffffffffffffff1673ffffffffffffffffffffffffffffffffffffffff1681526020016001820180546102419061088b565b80601f016020809104026020016040519081016040528092919081815260200182805461026d9061088b565b80156102ba5780601f1061028f576101008083540402835291602001916102ba565b820191906000526020600020905b81548152906001019060200180831161029d57829003601f168201915b50505050508152602001600282015481525050815260200190600101906101b8565b50505050905090565b600060405180606001604052803373ffffffffffffffffffffffffffffffffffffffff16815260200183815260200142815250908060018154018082558091505060019003906000526020600020906003020160009091909190915060008201518160000160006101000a81548173ffffffffffffffffffffffffffffffffffffffff021916908373ffffffffffffffffffffffffffffffffffffffff160217905550602082015181600101908161039d9190610a68565b5060408201518160020155505050565b6000604051905090565b600080fd5b600080fd5b6000819050919050565b6103d4816103c1565b81146103df57600080fd5b50565b6000813590506103f1816103cb565b92915050565b60006020828403121561040d5761040c6103b7565b5b600061041b848285016103e2565b91505092915050565b600073ffffffffffffffffffffffffffffffffffffffff82169050919050565b600061044f82610424565b9050919050565b61045f81610444565b82525050565b600081519050919050565b600082825260208201905092915050565b60005b8381101561049f578082015181840152602081019050610484565b60008484015250505050565b6000601f19601f8301169050919050565b60006104c782610465565b6104d18185610470565b93506104e1818560208601610481565b6104ea816104ab565b840191505092915050565b6104fe816103c1565b82525050565b60006060820190506105196000830186610456565b818103602083015261052b81856104bc565b905061053a60408301846104f5565b949350505050565b600081519050919050565b600082825260208201905092915050565b6000819050602082019050919050565b61057781610444565b82525050565b600082825260208201905092915050565b600061059982610465565b6105a3818561057d565b93506105b3818560208601610481565b6105bc816104ab565b840191505092915050565b6105d0816103c1565b82525050565b60006060830160008301516105ee600086018261056e565b5060208301518482036020860152610606828261058e565b915050604083015161061b60408601826105c7565b508091505092915050565b600061063283836105d6565b905092915050565b6000602082019050919050565b600061065282610542565b61065c818561054d565b93508360208202850161066e8561055e565b8060005b858110156106aa578484038952815161068b8582610626565b94506106968361063a565b925060208a01995050600181019050610672565b50829750879550505050505092915050565b600060208201905081810360008301526106d68184610647565b905092915050565b600080fd5b600080fd5b7f4e487b7100000000000000000000000000000000000000000000000000000000600052604160045260246000fd5b610720826104ab565b810181811067ffffffffffffffff8211171561073f5761073e6106e8565b5b80604052505050565b60006107526103ad565b905061075e8282610717565b919050565b600067ffffffffffffffff82111561077e5761077d6106e8565b5b610787826104ab565b9050602081019050919050565b82818337600083830152505050565b60006107b66107b184610763565b610748565b9050828152602081018484840111156107d2576107d16106e3565b5b6107dd848285610794565b509392505050565b600082601f8301126107fa576107f96106de565b5b813561080a8482602086016107a3565b91505092915050565b600060208284031215610829576108286103b7565b5b600082013567ffffffffffffffff811115610847576108466103bc565b5b610853848285016107e5565b91505092915050565b7f4e487b7100000000000000000000000000000000000000000000000000000000600052602260045260246000fd5b600060028204905060018216806108a357607f821691505b6020821081036108b6576108b561085c565b5b50919050565b60008190508160005260206000209050919050565b60006020601f8301049050919050565b600082821b905092915050565b60006008830261091e7fffffffffffffffffffffffffffffffffffffffffffffffffffffffffffffffff826108e1565b61092886836108e1565b95508019841693508086168417925050509392505050565b6000819050919050565b600061096561096061095b846103c1565b610940565b6103c1565b9050919050565b6000819050919050565b61097f8361094a565b61099361098b8261096c565b8484546108ee565b825550505050565b600090565b6109a861099b565b6109b3818484610976565b505050565b5b818110156109d7576109cc6000826109a0565b6001810190506109b9565b5050565b601f821115610a1c576109ed816108bc565b6109f6846108d1565b81016020851015610a05578190505b610a19610a11856108d1565b8301826109b8565b50505b505050565b600082821c905092915050565b6000610a3f60001984600802610a21565b1980831691505092915050565b6000610a588383610a2e565b9150826002028217905092915050565b610a7182610465565b67ffffffffffffffff811115610a8a57610a896106e8565b5b610a94825461088b565b610a9f8282856109db565b600060209050601f831160018114610ad25760008415610ac0578287015190505b610aca8582610a4c565b865550610b32565b601f198416610ae0866108bc565b60005b82811015610b0857848901518255600182019150602085019450602081019050610ae3565b86831015610b255784890151610b21601f891682610a2e565b8355505b6001600288020188555050505b50505050505056fea2646970667358221220b7742bb25548cdc447bc2ea31639f3cf75dc428d21dfc0d9ebb6aa5bd5fa99a864736f6c63430008130033",
  "linkReferences": {},
  "deployedLinkReferences": {}
}