{
  "_format": "hh-sol-artifact-1",
  "contractName": "Guestbook",
  "sourceName": "contracts/guestbook.sol",
  "abi": [
    {
      "inputs": [
        {
          "internalType": "uint256",
          "name": "postId",
          "type": "uint256"
        },
        {
          "internalType": "string",
          "name": "text",
          "type": "string"
        }
      ],
      "name": "commentPost",
      "outputs": [],
      "stateMutability": "nonpayable",
      "type": "function"
    },
    {
      "inputs": [
        {
          "internalType": "uint256",
          "name": "postId",
          "type": "uint256"
        }
      ],
      "name": "dislikePost",
      "outputs": [],
      "stateMutability": "nonpayable",
      "type": "function"
    },
    {
      "inputs": [
        {
          "internalType": "uint256",
          "name": "",
          "type": "uint256"
        },
        {
          "internalType": "address",
          "name": "",
          "type": "address"
        }
      ],
      "name": "disliked",
      "outputs": [
        {
          "internalType": "bool",
          "name": "",
          "type": "bool"
        }
      ],
      "stateMutability": "view",
      "type": "function"
    },
    {
      "inputs": [
        {
          "internalType": "address",
          "name": "user",
          "type": "address"
        }
      ],
      "name": "getAlias",
      "outputs": [
        {
          "internalType": "string",
          "name": "",
          "type": "string"
        }
      ],
      "stateMutability": "view",
      "type": "function"
    },
    {
      "inputs": [
        {
          "internalType": "uint256",
          "name": "postId",
          "type": "uint256"
        }
      ],
      "name": "getComments",
      "outputs": [
        {
          "components": [
            {
              "internalType": "address",
              "name": "commenter",
              "type": "address"
            },
            {
              "internalType": "string",
              "name": "text",
              "type": "string"
            },
            {
              "internalType": "uint256",
              "name": "timestamp",
              "type": "uint256"
            }
          ],
          "internalType": "struct Guestbook.Comment[]",
          "name": "",
          "type": "tuple[]"
        }
      ],
      "stateMutability": "view",
      "type": "function"
    },
    {
      "inputs": [],
      "name": "getPosts",
      "outputs": [
        {
          "components": [
            {
              "internalType": "address",
              "name": "author",
              "type": "address"
            },
            {
              "internalType": "string",
              "name": "content",
              "type": "string"
            },
            {
              "internalType": "uint256",
              "name": "timestamp",
              "type": "uint256"
            },
            {
              "internalType": "uint256",
              "name": "likeCount",
              "type": "uint256"
            },
            {
              "internalType": "uint256",
              "name": "dislikeCount",
              "type": "uint256"
            }
          ],
          "internalType": "struct Guestbook.Post[]",
          "name": "",
          "type": "tuple[]"
        }
      ],
      "stateMutability": "view",
      "type": "function"
    },
    {
      "inputs": [
        {
          "internalType": "address",
          "name": "user",
          "type": "address"
        }
      ],
      "name": "hasAlias",
      "outputs": [
        {
          "internalType": "bool",
          "name": "",
          "type": "bool"
        }
      ],
      "stateMutability": "view",
      "type": "function"
    },
    {
      "inputs": [
        {
          "internalType": "uint256",
          "name": "postId",
          "type": "uint256"
        }
      ],
      "name": "likePost",
      "outputs": [],
      "stateMutability": "nonpayable",
      "type": "function"
    },
    {
      "inputs": [
        {
          "internalType": "uint256",
          "name": "",
          "type": "uint256"
        },
        {
          "internalType": "address",
          "name": "",
          "type": "address"
        }
      ],
      "name": "liked",
      "outputs": [
        {
          "internalType": "bool",
          "name": "",
          "type": "bool"
        }
      ],
      "stateMutability": "view",
      "type": "function"
    },
    {
      "inputs": [
        {
          "internalType": "string",
          "name": "_content",
          "type": "string"
        }
      ],
      "name": "postMessage",
      "outputs": [],
      "stateMutability": "nonpayable",
      "type": "function"
    },
    {
      "inputs": [
        {
          "internalType": "uint256",
          "name": "",
          "type": "uint256"
        }
      ],
      "name": "posts",
      "outputs": [
        {
          "internalType": "address",
          "name": "author",
          "type": "address"
        },
        {
          "internalType": "string",
          "name": "content",
          "type": "string"
        },
        {
          "internalType": "uint256",
          "name": "timestamp",
          "type": "uint256"
        },
        {
          "internalType": "uint256",
          "name": "likeCount",
          "type": "uint256"
        },
        {
          "internalType": "uint256",
          "name": "dislikeCount",
          "type": "uint256"
        }
      ],
      "stateMutability": "view",
      "type": "function"
    },
    {
      "inputs": [
        {
          "internalType": "string",
          "name": "_alias",
          "type": "string"
        }
      ],
      "name": "setAlias",
      "outputs": [],
      "stateMutability": "nonpayable",
      "type": "function"
    }
  ],
  "bytecode": "0x608060405234801561001057600080fd5b5061202b806100206000396000f3fe608060405234801561001057600080fd5b50600436106100b45760003560e01c80636a293d04116100715780636a293d04146101a3578063725009d3146101bf578063732fa7c7146101db5780638924441e146101f757806399900d1114610227578063ca2a813414610257576100b4565b806302c42787146100b95780630418e5ff146100e95780630b1e7f831461010557806323edf6971461013957806341f3004a146101695780636630f88f14610187575b600080fd5b6100d360048036038101906100ce91906112b4565b610287565b6040516100e0919061130f565b60405180910390f35b61010360048036038101906100fe919061138f565b6102b6565b005b61011f600480360381019061011a91906113ef565b6104a8565b6040516101309594939291906114ca565b60405180910390f35b610153600480360381019061014e91906113ef565b610596565b604051610160919061169e565b60405180910390f35b6101716106fa565b60405161017e91906117f8565b60405180910390f35b6101a1600480360381019061019c919061181a565b61085f565b005b6101bd60048036038101906101b8919061181a565b610a1a565b005b6101d960048036038101906101d491906113ef565b610b99565b005b6101f560048036038101906101f091906113ef565b610e2c565b005b610211600480360381019061020c9190611867565b6110c0565b60405161021e919061130f565b60405180910390f35b610241600480360381019061023c9190611867565b611116565b60405161024e9190611894565b60405180910390f35b610271600480360381019061026c91906112b4565b6111e7565b60405161027e919061130f565b60405180910390f35b60016020528160005260406000206020528060005260406000206000915091509054906101000a900460ff1681565b60008054905083106102fd576040517f08c379a00000000000000000000000000000000000000000000000000000000081526004016102f490611902565b60405180910390fd5b600560003373ffffffffffffffffffffffffffffffffffffffff1673ffffffffffffffffffffffffffffffffffffffff16815260200190815260200160002060009054906101000a900460ff16610389576040517f08c379a00000000000000000000000000000000000000000000000000000000081526004016103809061196e565b60405180910390fd5b6003600084815260200190815260200160002060405180606001604052803373ffffffffffffffffffffffffffffffffffffffff16815260200184848080601f016020809104026020016040519081016040528093929190818152602001838380828437600081840152601f19601f82011690508083019250505050505050815260200142815250908060018154018082558091505060019003906000526020600020906003020160009091909190915060008201518160000160006101000a81548173ffffffffffffffffffffffffffffffffffffffff021916908373ffffffffffffffffffffffffffffffffffffffff16021790555060208201518160010190816104969190611bc9565b50604082015181600201555050505050565b600081815481106104b857600080fd5b90600052602060002090600502016000915090508060000160009054906101000a900473ffffffffffffffffffffffffffffffffffffffff1690806001018054610501906119ec565b80601f016020809104026020016040519081016040528092919081815260200182805461052d906119ec565b801561057a5780601f1061054f5761010080835404028352916020019161057a565b820191906000526020600020905b81548152906001019060200180831161055d57829003601f168201915b5050505050908060020154908060030154908060040154905085565b606060036000838152602001908152602001600020805480602002602001604051908101604052809291908181526020016000905b828210156106ef57838290600052602060002090600302016040518060600160405290816000820160009054906101000a900473ffffffffffffffffffffffffffffffffffffffff1673ffffffffffffffffffffffffffffffffffffffff1673ffffffffffffffffffffffffffffffffffffffff168152602001600182018054610654906119ec565b80601f0160208091040260200160405190810160405280929190818152602001828054610680906119ec565b80156106cd5780601f106106a2576101008083540402835291602001916106cd565b820191906000526020600020905b8154815290600101906020018083116106b057829003601f168201915b50505050508152602001600282015481525050815260200190600101906105cb565b505050509050919050565b60606000805480602002602001604051908101604052809291908181526020016000905b8282101561085657838290600052602060002090600502016040518060a00160405290816000820160009054906101000a900473ffffffffffffffffffffffffffffffffffffffff1673ffffffffffffffffffffffffffffffffffffffff1673ffffffffffffffffffffffffffffffffffffffff1681526020016001820180546107a7906119ec565b80601f01602080910402602001604051908101604052809291908181526020018280546107d3906119ec565b80156108205780601f106107f557610100808354040283529160200191610820565b820191906000526020600020905b81548152906001019060200180831161080357829003601f168201915b5050505050815260200160028201548152602001600382015481526020016004820154815250508152602001906001019061071e565b50505050905090565b600560003373ffffffffffffffffffffffffffffffffffffffff1673ffffffffffffffffffffffffffffffffffffffff16815260200190815260200160002060009054906101000a900460ff166108eb576040517f08c379a00000000000000000000000000000000000000000000000000000000081526004016108e29061196e565b60405180910390fd5b60006040518060a001604052803373ffffffffffffffffffffffffffffffffffffffff16815260200184848080601f016020809104026020016040519081016040528093929190818152602001838380828437600081840152601f19601f820116905080830192505050505050508152602001428152602001600081526020016000815250908060018154018082558091505060019003906000526020600020906005020160009091909190915060008201518160000160006101000a81548173ffffffffffffffffffffffffffffffffffffffff021916908373ffffffffffffffffffffffffffffffffffffffff16021790555060208201518160010190816109f59190611bc9565b5060408201518160020155606082015181600301556080820151816004015550505050565b600560003373ffffffffffffffffffffffffffffffffffffffff1673ffffffffffffffffffffffffffffffffffffffff16815260200190815260200160002060009054906101000a900460ff1615610aa7576040517f08c379a0000000000000000000000000000000000000000000000000000000008152600401610a9e90611ce7565b60405180910390fd5b6003828290501015610aee576040517f08c379a0000000000000000000000000000000000000000000000000000000008152600401610ae590611d53565b60405180910390fd5b8181600460003373ffffffffffffffffffffffffffffffffffffffff1673ffffffffffffffffffffffffffffffffffffffff1681526020019081526020016000209182610b3c929190611d7e565b506001600560003373ffffffffffffffffffffffffffffffffffffffff1673ffffffffffffffffffffffffffffffffffffffff16815260200190815260200160002060006101000a81548160ff0219169083151502179055505050565b6000805490508110610be0576040517f08c379a0000000000000000000000000000000000000000000000000000000008152600401610bd790611902565b60405180910390fd5b6001600082815260200190815260200160002060003373ffffffffffffffffffffffffffffffffffffffff1673ffffffffffffffffffffffffffffffffffffffff16815260200190815260200160002060009054906101000a900460ff1615610c7e576040517f08c379a0000000000000000000000000000000000000000000000000000000008152600401610c7590611e9a565b60405180910390fd5b6002600082815260200190815260200160002060003373ffffffffffffffffffffffffffffffffffffffff1673ffffffffffffffffffffffffffffffffffffffff16815260200190815260200160002060009054906101000a900460ff1615610d865760006002600083815260200190815260200160002060003373ffffffffffffffffffffffffffffffffffffffff1673ffffffffffffffffffffffffffffffffffffffff16815260200190815260200160002060006101000a81548160ff02191690831515021790555060008181548110610d5e57610d5d611eba565b5b90600052602060002090600502016004016000815480929190610d8090611f18565b91905055505b600180600083815260200190815260200160002060003373ffffffffffffffffffffffffffffffffffffffff1673ffffffffffffffffffffffffffffffffffffffff16815260200190815260200160002060006101000a81548160ff02191690831515021790555060008181548110610e0257610e01611eba565b5b90600052602060002090600502016003016000815480929190610e2490611f41565b919050555050565b6000805490508110610e73576040517f08c379a0000000000000000000000000000000000000000000000000000000008152600401610e6a90611902565b60405180910390fd5b6002600082815260200190815260200160002060003373ffffffffffffffffffffffffffffffffffffffff1673ffffffffffffffffffffffffffffffffffffffff16815260200190815260200160002060009054906101000a900460ff1615610f11576040517f08c379a0000000000000000000000000000000000000000000000000000000008152600401610f0890611fd5565b60405180910390fd5b6001600082815260200190815260200160002060003373ffffffffffffffffffffffffffffffffffffffff1673ffffffffffffffffffffffffffffffffffffffff16815260200190815260200160002060009054906101000a900460ff16156110195760006001600083815260200190815260200160002060003373ffffffffffffffffffffffffffffffffffffffff1673ffffffffffffffffffffffffffffffffffffffff16815260200190815260200160002060006101000a81548160ff02191690831515021790555060008181548110610ff157610ff0611eba565b5b9060005260206000209060050201600301600081548092919061101390611f18565b91905055505b60016002600083815260200190815260200160002060003373ffffffffffffffffffffffffffffffffffffffff1673ffffffffffffffffffffffffffffffffffffffff16815260200190815260200160002060006101000a81548160ff0219169083151502179055506000818154811061109657611095611eba565b5b906000526020600020906005020160040160008154809291906110b890611f41565b919050555050565b6000600560008373ffffffffffffffffffffffffffffffffffffffff1673ffffffffffffffffffffffffffffffffffffffff16815260200190815260200160002060009054906101000a900460ff169050919050565b6060600460008373ffffffffffffffffffffffffffffffffffffffff1673ffffffffffffffffffffffffffffffffffffffff1681526020019081526020016000208054611162906119ec565b80601f016020809104026020016040519081016040528092919081815260200182805461118e906119ec565b80156111db5780601f106111b0576101008083540402835291602001916111db565b820191906000526020600020905b8154815290600101906020018083116111be57829003601f168201915b50505050509050919050565b60026020528160005260406000206020528060005260406000206000915091509054906101000a900460ff1681565b600080fd5b600080fd5b6000819050919050565b61123381611220565b811461123e57600080fd5b50565b6000813590506112508161122a565b92915050565b600073ffffffffffffffffffffffffffffffffffffffff82169050919050565b600061128182611256565b9050919050565b61129181611276565b811461129c57600080fd5b50565b6000813590506112ae81611288565b92915050565b600080604083850312156112cb576112ca611216565b5b60006112d985828601611241565b92505060206112ea8582860161129f565b9150509250929050565b60008115159050919050565b611309816112f4565b82525050565b60006020820190506113246000830184611300565b92915050565b600080fd5b600080fd5b600080fd5b60008083601f84011261134f5761134e61132a565b5b8235905067ffffffffffffffff81111561136c5761136b61132f565b5b60208301915083600182028301111561138857611387611334565b5b9250929050565b6000806000604084860312156113a8576113a7611216565b5b60006113b686828701611241565b935050602084013567ffffffffffffffff8111156113d7576113d661121b565b5b6113e386828701611339565b92509250509250925092565b60006020828403121561140557611404611216565b5b600061141384828501611241565b91505092915050565b61142581611276565b82525050565b600081519050919050565b600082825260208201905092915050565b60005b8381101561146557808201518184015260208101905061144a565b60008484015250505050565b6000601f19601f8301169050919050565b600061148d8261142b565b6114978185611436565b93506114a7818560208601611447565b6114b081611471565b840191505092915050565b6114c481611220565b82525050565b600060a0820190506114df600083018861141c565b81810360208301526114f18187611482565b905061150060408301866114bb565b61150d60608301856114bb565b61151a60808301846114bb565b9695505050505050565b600081519050919050565b600082825260208201905092915050565b6000819050602082019050919050565b61155981611276565b82525050565b600082825260208201905092915050565b600061157b8261142b565b611585818561155f565b9350611595818560208601611447565b61159e81611471565b840191505092915050565b6115b281611220565b82525050565b60006060830160008301516115d06000860182611550565b50602083015184820360208601526115e88282611570565b91505060408301516115fd60408601826115a9565b508091505092915050565b600061161483836115b8565b905092915050565b6000602082019050919050565b600061163482611524565b61163e818561152f565b93508360208202850161165085611540565b8060005b8581101561168c578484038952815161166d8582611608565b94506116788361161c565b925060208a01995050600181019050611654565b50829750879550505050505092915050565b600060208201905081810360008301526116b88184611629565b905092915050565b600081519050919050565b600082825260208201905092915050565b6000819050602082019050919050565b600060a0830160008301516117046000860182611550565b506020830151848203602086015261171c8282611570565b915050604083015161173160408601826115a9565b50606083015161174460608601826115a9565b50608083015161175760808601826115a9565b508091505092915050565b600061176e83836116ec565b905092915050565b6000602082019050919050565b600061178e826116c0565b61179881856116cb565b9350836020820285016117aa856116dc565b8060005b858110156117e657848403895281516117c78582611762565b94506117d283611776565b925060208a019950506001810190506117ae565b50829750879550505050505092915050565b600060208201905081810360008301526118128184611783565b905092915050565b6000806020838503121561183157611830611216565b5b600083013567ffffffffffffffff81111561184f5761184e61121b565b5b61185b85828601611339565b92509250509250929050565b60006020828403121561187d5761187c611216565b5b600061188b8482850161129f565b91505092915050565b600060208201905081810360008301526118ae8184611482565b905092915050565b7f506f7374206e6f7420666f756e64000000000000000000000000000000000000600082015250565b60006118ec600e83611436565b91506118f7826118b6565b602082019050919050565b6000602082019050818103600083015261191b816118df565b9050919050565b7f416c696173206e6f742073657400000000000000000000000000000000000000600082015250565b6000611958600d83611436565b915061196382611922565b602082019050919050565b600060208201905081810360008301526119878161194b565b9050919050565b7f4e487b7100000000000000000000000000000000000000000000000000000000600052604160045260246000fd5b7f4e487b7100000000000000000000000000000000000000000000000000000000600052602260045260246000fd5b60006002820490506001821680611a0457607f821691505b602082108103611a1757611a166119bd565b5b50919050565b60008190508160005260206000209050919050565b60006020601f8301049050919050565b600082821b905092915050565b600060088302611a7f7fffffffffffffffffffffffffffffffffffffffffffffffffffffffffffffffff82611a42565b611a898683611a42565b95508019841693508086168417925050509392505050565b6000819050919050565b6000611ac6611ac1611abc84611220565b611aa1565b611220565b9050919050565b6000819050919050565b611ae083611aab565b611af4611aec82611acd565b848454611a4f565b825550505050565b600090565b611b09611afc565b611b14818484611ad7565b505050565b5b81811015611b3857611b2d600082611b01565b600181019050611b1a565b5050565b601f821115611b7d57611b4e81611a1d565b611b5784611a32565b81016020851015611b66578190505b611b7a611b7285611a32565b830182611b19565b50505b505050565b600082821c905092915050565b6000611ba060001984600802611b82565b1980831691505092915050565b6000611bb98383611b8f565b9150826002028217905092915050565b611bd28261142b565b67ffffffffffffffff811115611beb57611bea61198e565b5b611bf582546119ec565b611c00828285611b3c565b600060209050601f831160018114611c335760008415611c21578287015190505b611c2b8582611bad565b865550611c93565b601f198416611c4186611a1d565b60005b82811015611c6957848901518255600182019150602085019450602081019050611c44565b86831015611c865784890151611c82601f891682611b8f565b8355505b6001600288020188555050505b505050505050565b7f416c69617320616c726561647920736574000000000000000000000000000000600082015250565b6000611cd1601183611436565b9150611cdc82611c9b565b602082019050919050565b60006020820190508181036000830152611d0081611cc4565b9050919050565b7f416c69617320746f6f2073686f72740000000000000000000000000000000000600082015250565b6000611d3d600f83611436565b9150611d4882611d07565b602082019050919050565b60006020820190508181036000830152611d6c81611d30565b9050919050565b600082905092915050565b611d888383611d73565b67ffffffffffffffff811115611da157611da061198e565b5b611dab82546119ec565b611db6828285611b3c565b6000601f831160018114611de55760008415611dd3578287013590505b611ddd8582611bad565b865550611e45565b601f198416611df386611a1d565b60005b82811015611e1b57848901358255600182019150602085019450602081019050611df6565b86831015611e385784890135611e34601f891682611b8f565b8355505b6001600288020188555050505b50505050505050565b7f416c7265616479206c696b656400000000000000000000000000000000000000600082015250565b6000611e84600d83611436565b9150611e8f82611e4e565b602082019050919050565b60006020820190508181036000830152611eb381611e77565b9050919050565b7f4e487b7100000000000000000000000000000000000000000000000000000000600052603260045260246000fd5b7f4e487b7100000000000000000000000000000000000000000000000000000000600052601160045260246000fd5b6000611f2382611220565b915060008203611f3657611f35611ee9565b5b600182039050919050565b6000611f4c82611220565b91507fffffffffffffffffffffffffffffffffffffffffffffffffffffffffffffffff8203611f7e57611f7d611ee9565b5b600182019050919050565b7f416c7265616479206469736c696b656400000000000000000000000000000000600082015250565b6000611fbf601083611436565b9150611fca82611f89565b602082019050919050565b60006020820190508181036000830152611fee81611fb2565b905091905056fea2646970667358221220e413f0a65d99fb452544e02218b3cf7b75a2ea070f9ee6a2b3596a8d97f22cde64736f6c63430008130033",
  "linkReferences": {},
  "deployedLinkReferences": {}
}